:020000040800F2
:1000000070040020010100083F0D00087F0C00086B
:100010003D0D00080F020008350F00080000000029
:10002000000000000000000000000000430D000878
:100030001102000800000000410D0008450D0008F5
:100040001B0100081B0100081B0100081B01000820
:100050001B0100081B0100081B0100081B01000810
:100060001B0100081B0100081B0100081B01000800
:100070001B0100081B0100081B0100081B010008F0
:100080001B0100081B0100081B0100081B010008E0
:100090001B0100081B0100081B0100081B010008D0
:1000A0001B0100081B0100081B0100081B010008C0
:1000B0001B0100081B0100081B0100081B010008B0
:1000C0001B0100081B0100081B0100081B010008A0
:1000D0001B0100081B0100081B0100081B01000890
:1000E0001B0100081B0100081B010008DFF80CD0F1
:1000F00000F06CF800480047551400087004002018
:100100000648804706480047FEE7FEE7FEE7FEE7B1
:10011000FEE7FEE7FEE7FEE7FEE7FEE7D10D00089B
:10012000ED000008202A04DB203A21FA02F0002129
:10013000704721FA02F3D040C2F1200291400843F7
:1001400019467047D2B201E000F8012B491EFBD2DC
:1001500070470022F6E710B513460A4604461946D2
:10016000FFF7F0FF204610BD2DE9F05F05460020A7
:1001700092469B4688460646814640241BE0284618
:10018000414647462246FFF7CDFF53465A46C01A1E
:10019000914110D311461846224600F029F82D1A35
:1001A00067EB01084F4622460120002100F020F8AD
:1001B00017EB00094E41201EA4F10104DFDC484684
:1001C00031462A464346BDE8F09F0000064C074DE5
:1001D00006E0E06840F0010394E807009847103417
:1001E000AC42F6D3FFF786FFE018000800190008BC
:1001F000202A04DB203A00FA02F1002070479140E7
:10020000C2F1200320FA03F3194390407047FEE740
:100210007047000070B5044600F01AF90546601CEE
:1002200002D004480078044400F012F9401BA042B8
:10023000FAD370BD0C00002070B5002400EB8000E4
:10024000450006E0044800F032F96420FFF7E2FFC1
:10025000641CAC42F6D970BD200000202DE9F84F97
:10026000DFF8B891002409F1040A0AF1040B2346CF
:100270000F270BF1040EC9E00125A5402A40AA4230
:100280007DD1674ED1F804C0ACEB0608B44532D03E
:1002900014DCBCF1030F3AD009DCBCF1000F2AD00A
:1002A000BCF1010F1CD0BCF1020F31D11DE0BCF13B
:1002B000110F17D0BCF1120F2AD119E0B8F5881F21
:1002C00019D006DCB8F5803F15D0B8F5801F1FD1D6
:1002D00011E0B8F5001F0ED0B8F5041F18D10AE0E0
:1002E000CB6815E0CB681B1D12E0CB6808330FE02C
:1002F000CB680C330CE08B682BB1012B4FF008035B
:1003000003D0456104E0042302E0056100E000231E
:10031000FF2A01D8064601E000F104064FEA8405F1
:1003200001D9A5F12005D6F8008007FA05FC28EAD6
:100330000C0803FA05F548EA0508C6F800804D6880
:10034000ED0062D5374DAE6946F00106AE61AD698C
:1003500024F0030605F001050095334D06EB050C6E
:10036000DCF80850A607360F07FA06F825EA080554
:10037000DFF8B880404503D14FF0000817E044E0B3
:10038000DFF8AC80404502D14FF001080FE0DFF804
:10039000A480404502D14FF0020808E0DFF89880C1
:1003A000404502D14FF0030801E04FF0040808FA7D
:1003B00006F848EA0508CCF808804D68D9F80060CE
:1003C000ED034D4601D5164300E096432E604D687F
:1003D000DAF80060AD03554601D5164300E09643B8
:1003E0002E604D68DBF80060ED025D4601D51643D6
:1003F00000E096432E604D68DEF80060AD02754661
:1004000001D5164300E096432E60641C0D682A4611
:10041000E5407FF431AFBDE8F88F000000040140F3
:1004200000001110001002400000014000080140CF
:10043000000C014000100140001401408068084099
:1004400000D0012070470AB1016170470904FBE741
:1004500001488068704700000C00002070B504005F
:1004600011D021684CF6CC400860216845F2555007
:100470000860D4E9000141602168A0688860FFF746
:10048000E7FF054609E0012070BD00BFFFF7E0FF70
:10049000401B302801D9032070BD2068C0680028A7
:1004A000F4D121684AF6AA200860002070BD0068D7
:1004B0004AF6AA21016000207047000002488168C6
:1004C00002781144816070470C000020074810B585
:1004D000016841F010010160032000F067F800207E
:1004E00000F006F800F024F8002010BD00200240C3
:1004F00070B50D4D04464FF47A712878B1FBF0F0D9
:100500000A490968B1FBF0F000F0DEFA48B9102C96
:1005100007D200222146501E00F028F800206C600F
:1005200070BD012070BD00000C00002018000020EC
:100530000C4808B5816941F001018161816901F0D0
:1005400001010091C16941F08051C161C06900F0B1
:10055000805000900448416821F0E06141F0007152
:10056000416008BD0010024000000140F0B40E4B95
:100570001B680C46C3F30223C3F10705042D00D901
:100580000425191D072901D2002300E0DB1E0126E6
:1005900006FA05F1491E214099409E40761E1640FC
:1005A0003143F0BC00F0D8BC0CED00E0064900F08F
:1005B000070208684FF6FF03184040EA0220034A8A
:1005C00010430860704700000CED00E00000FA05E1
:1005D0002DE9F0470F46050061D0434E306800F02A
:1005E0000700B84209D2306820F007003843306075
:1005F000306800F00700B84251D128683B4C8107B1
:1006000012D5400703D5606840F4E0606060287848
:10061000000703D5606840F4605060606068A968B6
:1006200020F0F000084360602878C00728D0686890
:10063000012810D02168022810D0890700292EDA5D
:10064000616821F0030101436160FFF701FF80460B
:1006500041F288390DE021688903EFE78901EDE770
:10066000FFF7F6FEA0EB0801494502D90320BDE8DB
:10067000F0876068696800F00C00B0EB810FEFD183
:10068000306800F00700B8420BD9306820F007004E
:1006900038433060306800F00700B84201D00120D4
:1006A000E5E72878400705D56068E96820F4E06050
:1006B000084360602878000706D56068296920F43F
:1006C000605040EAC100606000F038F86168084A94
:1006D000C1F30311515CC840064908600648006830
:1006E000FFF706FF0020C2E7002002400010024092
:1006F000C818000818000020100000200448054910
:1007000000684968044AC1F30221515CC84070473F
:100710001800002000100240D818000804480549BD
:1007200000684968044AC1F3C221515CC84070475F
:100730001800002000100240D818000812A185B04F
:100740000FC98DE80F0014A0144A00680490516886
:10075000134801F00C03042B10D0082B0ED1C1F369
:100760008343C9031DF803000AD5516804AAC1F3E5
:100770004041515C0A4A5043B0FBF1F005B070476C
:1007800008494843FAE70000020304050607080980
:100790000A0B0C0D0E0F1010010200000010024099
:1007A00000127A0000093D002DE9F84F040070D0D6
:1007B0002078C04DC00749D06868C0F38100012887
:1007C00007D06868C0F38100022809D16868C003B7
:1007D00006D52868800339D560680028E7D035E061
:1007E0006068B0F5803F0BD010B1B0F5A02F11D0EC
:1007F000286820F480302860286820F4802002E0F7
:10080000286840F480302860606890B1FFF720FECF
:1008100006460AE0286840F480202860F0E700BF20
:10082000FFF716FE801B642873D828688003F7D56D
:100830000CE0FFF70DFE064605E000BFFFF708FEDF
:10084000801B6428F0D828688003F7D420789A4E5B
:1008500080074FF001094FF0000839D5686810F0A3
:100860000C0F07D06868C0F38100022809D16868BE
:10087000C00306D42868800714D52069012808D150
:1008800010E02069B0B1C6F80090FFF7E1FD07461F
:1008900005E00AE1FFF7DCFDC01B0228C4D8286888
:1008A0008007F7D52868616920F0F80040EAC100A8
:1008B00028600DE0C6F80080FFF7CAFD074604E097
:1008C000FFF7C6FDC01B022823D828688007F7D48D
:1008D000207800072CD57948A169D9B1C0F80090DB
:1008E000FFF7B6FD074604E0FFF7B2FDC01B022884
:1008F0000FD8686A8007F7D571484FF4FA5100683D
:10090000B0FBF1F0009000BF0098411E0091FAD2B8
:100910000EE080E0C0F80080FFF79AFD074604E093
:10092000FFF796FDC01B022875D8686A8007F7D4C8
:100930002078400760D5E8690027C00008D4E8693E
:1009400040F08050E861E869012700F08050009095
:100950005C480168C90513D40168834641F480717D
:100960000160FFF775FD824606E000BFFFF770FDEE
:10097000A0EB0A0064284ED8DBF80000C005F5D5CE
:10098000E06801280AD008B1052813D0286A20F0B1
:1009900001002862286A20F0040002E0286A40F082
:1009A00001002862E06841F2883B98B1FFF750FDF2
:1009B00082460BE0286A40F004002862EEE700BFA0
:1009C000FFF746FDA0EB0A0159455AD8286A80076F
:1009D000F6D50CE0FFF73CFD824605E0FFF738FD59
:1009E000A0EB0A0159454CD8286A8007F6D41FB1FC
:1009F000E86920F08050E861E06988B36968C1F374
:100A00008101022944D00228C6F8608004D0FFF793
:100A10001FFD044638E034E0FFF71AFD074604E006
:100A2000FFF716FDC01B02282BD828688001F7D4D9
:100A3000206AB0F5803F05D16868A16820F40030D5
:100A400008436860D4E908010843696821F4741117
:100A500008436860C6F86090FFF7FAFC044606E0B9
:100A600025E000BFFFF7F4FC001B022809D8286826
:100A70008001F7D51BE000BFFFF7EAFC001B02284E
:100A800002D90320BDE8F88F28688001F4D40EE075
:100A90000128F7D06868226A00F48031914204D1BD
:100AA000616A00F47010884201D00120EAE700205A
:100AB000E8E7000000100240000042428004424289
:100AC000180000200070004010B5401EB0F1807F7B
:100AD00001D3012010BD4FF0E02460610F216017A9
:100AE00000F03AFA0020A06107202061002010BD2C
:100AF00070B5040004D094F83900002510B106E068
:100B0000012070BD84F83850204600F023F82420DE
:100B100084F839002068C16821F40051C160204682
:100B200000F07AF92068016921F4904101612068A0
:100B3000416921F02A0141612068C16841F40051F6
:100B4000C160E563202084F8390084F83A00002071
:100B500070BD000030B585B000240094019402946B
:100B6000039400681449884224D11448816941F4EF
:100B700080418161816901F480410491816941F082
:100B80000401816180690E4D00F0040004904FF46F
:100B900000700090022001900320039069462846CF
:100BA000FFF75CFB2815CDE900046946284602944E
:100BB000FFF754FB05B030BD003801400010024083
:100BC000000801402DE9F843044690F839001F461B
:100BD00016460D46202850D1A5B19EB194F8380094
:100BE00001284AD0012084F838004FF00008C4F8EA
:100BF0003C80212084F83900FFF72AFCA684814636
:100C0000E68426E00120BDE8F883E08C401EE08405
:100C1000A0684B46B0F5805F4FF000024FF08001B6
:100C20002046009703D000F053F9E8B90DE000F03A
:100C30004FF9C8B928882168C0F3080048602069C6
:100C400008B16D1C05E0AD1C03E0216815F8010B2F
:100C50004860E08C0028D8D14B4600224021204635
:100C6000009700F035F908B10320CCE7202084F884
:100C7000390084F838800020C5E70220C3E7FEE78A
:100C80002DE9F04385B0002629480096019602968A
:100C90000396816941F020018161816901F02001A1
:100CA0000491816941F004018161816901F00401CD
:100CB0000491816941F0080181618069DFF87480E5
:100CC00000F008000490002209214046FFF7BBFB1A
:100CD000DFF864904FF40077002239464846FFF76A
:100CE000B2FB0920012402258DE831006946404607
:100CF0000395FFF7B3FA49F60410CDE900066946FB
:100D000002944046FFF7AAFA4FF6F850CDE90006E4
:100D1000694602944846FFF7A1FA0097CDE90145DC
:100D2000694648460395FFF799FA05B0BDE8F08398
:100D30000010024000080140000C0140FEE770472F
:100D40007047704710B5FFF7B9FB0B4A0B481168A5
:100D5000491CA1F540731160B63B0AD0B1F57A7F0A
:100D600009D1002111600122BDE810400121FFF7E7
:100D70006ABB0022F8E710BD08000020000801400F
:100D800030B58FB028216846FFF7E3F914210AA88F
:100D9000FFF7DFF90920009001214FF48030002493
:100DA0000491CDE901040225CDE90804CDE9061539
:100DB0006846FFF7F9FC0F20CDE90A058020CDE950
:100DC0000C0400210AA80E94FFF702FC0FB030BDFE
:100DD0000D48016841F00101016041680B4A114072
:100DE000416001680A4A11400160016821F48021D4
:100DF0000160416821F4FE0141604FF41F018160F0
:100E00000449C00308607047001002400000FFF86A
:100E1000FFFFF6FE08ED00E02DE9F0410446006812
:100E20000169E26821F44051114301612169A06820
:100E30000843616908432168CA6841F20C639A4318
:100E40000243CA6020684169A26921F440711143DC
:100E500041611E49206864253226884202D1FFF78D
:100E60005DFC01E0FFF74AFC00EBC00101EB001163
:100E700060686FF018078000B1FBF0F2B2FBF5F28A
:100E8000B1FBF0F37A4303EB8202B1FBF0F306EB24
:100E90000212B2FBF5F2B3FBF5F302F0F00202EB43
:100EA0000312B1FBF0F3B1FBF0F0B0FBF5F07843C7
:100EB00003EB800006EB0010B0FBF5F0216800F0BA
:100EC0000F0010448860BDE8F08100000038014048
:100ED0002DE9F041984617460E460446069D1DE052
:100EE000681C1BD02DB1FFF7B3FAA0EB0800A84295
:100EF00014D92068C16821F4D071C16020684169AB
:100F000021F001014161202084F8390084F83A0081
:100F1000002084F838000320BDE8F08120680068D4
:100F200036EA000004D00020B842D9D00020F3E710
:100F30000120F9E7FEE700000FB4054B10B503A947
:100F4000044A029800F028F810BC5DF814FB000079
:100F5000591200081C0000200907090E002804DBB4
:100F600000F1E02080F80014704700F00F0000F15D
:100F7000E02080F8141D704702E008C8121F08C165
:100F8000002AFAD170477047002001E001C1121F0A
:100F9000002AFBD1704700002DE9FF4F8DB09B4622
:100FA0000F460446002606E025280BD05A460F9926
:100FB0009047641C761C20780028F5D111B030468B
:100FC000BDE8F08F0025A8460122984900E00543BE
:100FD00014F8013F203B02FA03F00842F7D12078D1
:100FE0002E2817D114F8010F45F004052A280ED039
:100FF0006FF02F022078A0F1300109290AD808EB00
:10100000880102EB410100EB0108641CF2E757F88C
:10101000048B641C20786C280DD004DC4C2812D082
:101020006A2811D104E074280DD07A280CD10AE086
:1010300045F4001507E0617845F48015814202D13E
:10104000641C05F58015641C2278692A45D008DCEB
:10105000002AB3D0582A69D0632A10D0642A08D154
:101060003BE0702A67D0732A13D0752A5CD0782AA7
:101070005CD010465A460F999047761CD3E017F87B
:10108000040B8DF8000000208DF80100E9460120D6
:1010900003E057F8049B4FF0FF3069074FF000055D
:1010A00001D40AE06D1C45450DDA8542FADB19F8DA
:1010B00005100029F6D106E06D1C8542FCDB19F80D
:1010C00005100029F8D12E4404E019F8010B5A4606
:1010D0000F9990476D1EF8D2A5E00A200021CDE9B6
:1010E0000801C5F3025002280DD001CFC117031E1D
:1010F00071F100030DDA4FF0000CD0EB0C006CEB3B
:1011000001012D2308E0FF1D27F00707F7E8020182
:10111000EDE72B0504D52B238DF8283001233BE088
:10112000EB0739D02023F7E70A2000E01020002148
:10113000CDE9080107E01020002145F00405CDE9C4
:1011400008014FF00808C5F3025002280FD001CF64
:1011500000214FF0000A2B071FD5702A0DD0DDE9C2
:1011600008C38CF0100C5CEA030C0CD015E0FF1DDA
:1011700027F00707F7E80201EBE740228DF8282067
:101180004FF0010A0BE050EA010306D030238DF83E
:1011900028308DF8292002239A46582A04D024A208
:1011A0000DF120090B9209E026A2F9E7DDE90823F9
:1011B000FEF7DAFF0B9B9B5C09F8013D50EA010248
:1011C000F4D1ADEB090020300890680701D44FF04E
:1011D00001080899884502DDA8EB010000E0002025
:1011E0008046002506E00AA85A46405D0F999047C0
:1011F0006D1C761C5545F6DB04E030205A460F99ED
:101200009047761CB8F10001A8F10108F5DC05E073
:1012100019F8010B5A460F999047761C0899481EF9
:1012200008900029F4DC641CC5E6000009280100D0
:10123000303132333435363738396162636465664C
:10124000000000003031323334353637383941420E
:10125000434445460000000013B54FF6FF730122DA
:1012600069460248FFF7AEFC00981CBD2C00002028
:101270002DE9F05F324C4FF480512046FFF7DEF845
:1012800083464FF400412046FFF7D8F82D4C8246A4
:1012900008212046FFF7D2F8814610212046FFF7AB
:1012A000CDF8804620212046FFF7C8F807464021A8
:1012B0002046FFF7C3F8064680212046FFF7BEF818
:1012C0000546A1152046FFF7B9F8044659461EA069
:1012D000FFF732FE514620A0FFF72EFE494622A01E
:1012E000FFF72AFE414624A0FFF726FE394626A036
:1012F000FFF722FE314628A0FFF71EFE29462AA04E
:10130000FFF71AFE21462CA0FFF716FEE00140EA87
:10131000851040EA461040EA071141EAC80141EA57
:10132000890141EA4A0141EA0B01C8432649C0B29A
:101330000209CA7000F00F020A71BDE8F09F0000B8
:1013400000080140000C014074696D5F435B305D33
:101350003A307825780D0A0074696D5F435B315D22
:101360003A307825780D0A0074696D5F435B325D11
:101370003A307825780D0A0074696D5F435B335D00
:101380003A307825780D0A0074696D5F435B345DEF
:101390003A307825780D0A0074696D5F435B355DDE
:1013A0003A307825780D0A0074696D5F435B365DCD
:1013B0003A307825780D0A0074696D5F435B375DBC
:1013C0003A307825780D0A00000000202DE9F84F0A
:1013D0001E4D4FF4006421462846FFF72FF8009079
:1013E00061102846FFF72AF8834661002846FFF778
:1013F00025F88246A1002846FFF720F88146E10043
:101400002846FFF71BF8804621012846FFF716F80B
:101410000F4E0546E1103046FFF710F8074621460B
:101420003046FFF70BF8C00140EA871040EA45114B
:1014300041EA081141EAC90141EA8A01009841EAFA
:101440004B010143C843C0B2BDE8F88F000C014016
:101450000008014008B5FFF739F8FFF791FCFFF7E6
:101460000FFC9548934901600221416040F6FF71ED
:101470008160FEF7F3FF904890490C300C22016028
:101480004FF4E131416000218160C160C0E9041284
:101490008161C161FFF72CFB89A0FFF74DFD64203E
:1014A000FEF7B8FE8448FFF702F86420FEF7B2FEAC
:1014B0008148FEF7FCFFFFF789FF864C6070FFF75D
:1014C000D7FE2070024620790090E378617882A0F0
:1014D000FFF732FD90A0FFF72FFD944D0122082168
:1014E0002846FEF7B0FFDFF848A24FF4007900224B
:1014F00049465046FEF7A7FF6F48FEF7D8FFE07851
:1015000000EB800041008BA0FFF716FDE07800EBB8
:1015100080004000FEF790FE4FF4FA68207900EB5F
:101520008000410088A0FFF707FD00273E46624883
:10153000FEF7BDFF04212846FEF780FF00283FD0BC
:101540000A20FEF767FE2079002600EB4001C1EB80
:10155000C0107F1CB7EBC00F32D301265648FEF7F0
:10156000A6FF314680A0FFF7E7FC5348FEF79FFF38
:101570000A20FEF74FFE04212846FEF75FFF0028F1
:10158000F3D100273E4614217EA0FFF7D5FC4A4840
:10159000FEF78DFF04212846FEF750FF78B30A209E
:1015A000FEF738FE00267F1C474529D37DA0FFF7B4
:1015B000C3FC4148FEF77BFF0A20FEF72BFEF8E74D
:1015C00004212846FEF73AFF0028B0D10A20FEF792
:1015D00021FE2079002700EB4001C1EBC010761CF2
:1015E000B6EBC00FA3D300263348FEF760FF3248A6
:1015F000FEF75DFF314671A0FFF79EFC0DE0FFE7AF
:1016000004212846FEF71AFF0028C0D10A20FEF761
:1016100001FE0027761C4645B9D300220821284642
:10162000FEF711FF6CA0FFF787FCE07800EB80006D
:1016300041006FA0FFF780FCE07800EB80004000E5
:10164000FEF7FAFD012208212846FEF7FCFEA078ED
:10165000401CC1B2A1706CA0FFF76EFC1648FEF7EB
:1016600026FF72A0FFF768FCA0786178884219D342
:1016700075A0FFF761FC002208212846FEF7E3FE73
:101680000120FEF7D9FD012249465046FEF7DBFE58
:101690007CA0FFF751FC0848FEF709FF0520FEF784
:1016A000B9FDF8E70448FEF702FF79A0FFF744FC14
:1016B00034E70000003000402000002000380140E6
:1016C000496E69745F5379735469636B204F4B2182
:1016D0000D0A000000000020536574636F756E747E
:1016E0003A25642C53657474696D653A25642C73CE
:1016F00065745F64656C61795F74696D653A2564D2
:101700002C7365745F636865636B5F74696D653ABC
:1017100025640D0A0000000053746570313A506F63
:101720007765725F4F4E0D0A00000000000801400F
:10173000000C014053746570323A44656C61795F06
:10174000533A2564730D0A0053746570333A446547
:1017500063745F496E7075745F53696E67656C3A48
:101760002564730D0A00000053746570332D313AFF
:1017700053575F616C776179735F4F4E3A25640D03
:101780000A000000446563745F496E7075745F53AE
:10179000696E67656C20616761696E3A2564730DD7
:1017A0000A000000636F6E74696E75656420706F67
:1017B000776572206F6E200D0A000000537465700B
:1017C000332D323A53575F616C776179735F4F46BF
:1017D000463A25640D0A000053746570332D322D8E
:1017E000313A506F7765725F4F66660D0A000000F0
:1017F00053746570332D322D323A44656C61792D06
:101800002564730D0A00000053746570332D322D6A
:10181000333A506F7765725F4F4E2C5357636F7535
:101820006E742B2B3A25640D0A000000537465700A
:10183000332D322D343A446563742D5357636F75DD
:101840006E740D0A0000000053746570332D322D44
:10185000342D313A5357636F756E743D536574631D
:101860006F756E742C506F7765725F4F66662C448F
:10187000656C61792D31732C416C61726D5F4F6EB7
:101880000D0A00007768696C652831293A0D0A0055
:1018900053746570332D322D342D323A5357636FA4
:1018A000756E74213D536574636F756E742C676F2C
:1018B000746F20446563745F496E7075745F53691B
:1018C0006E67656C0D0A000000000000000000005B
:1018D00001020304060708090000000001020304D6
:1018E000001900080000002020000000780F000808
:1018F000201900082000002050040000880F000874
:1019000000000000000000000000000001000000D6
:1019100010000000000000000024F400000000009F
:04000005080000ED02
:00000001FF
